:100B3500050C00000000000518000000000005126B
:100B45000000000000011100011D0001170001084F
:0A0B550000010901010A00010B0074
:100C9A00E4FDFCC3ED9FEC9E5015E4FBFA0BBB0090
:0F0CAA00010AEB64784A70F50DBD00010C80E47F
:010CB9002218
:0B0D1500758901E4F58AF58CD28C2270
:03000B00020800E8
:10080000C0E0C0F0C083C082C0D075D000C000C0BE
:0D08100001C002C003C004C005C006C0073F
:10081D00751E007D04AFA0120BE6EF7008750C017C
:10082D00F517120C327D03AFA0120BE6EF700975B0
:10083D000D01751701120C327D02AFA0120BE6EF00
:10084D007009750E01751702120C327D01AFA012E1
:10085D000BE6EF7009750F01751703120C32E4FDED
:10086D00AFA0120BE6EF7009751001751704120C8D
:10087D00327D07AF80120BE6EF7009751201F51787
:10088D00FF120D287D05AF80120BE6EF700B751969
:10089D00017517017F01120D287D03AF80120BE644
:1008AD00EF700B751A017517027F01120D287D016E
:1008BD00AF80120BE6EF700B751B017517037F01EF
:1008CD00120D287D06AF80120BE6EF700A7513012D
:1008DD00751701FF120D287D04AF80120BE6EF7026
:1008ED000A751401751702FF120D287D02AF8012D3
:1008FD000BE6EF700A751501751703FF120D28E44D
:10090D00FDAF80120BE6EF700B751C017517047FA0
:10091D0001120D28751100751D00E51ED3940450AC
:10092D00187418251EF8E62511F5117412251EF8F8
:09093D00E6251DF51D051E80E1F3
:10094600D007D006D005D004D003D002D001D00005
:0B095600D0D0D082D083D0F0D0E032AF
:03000300020B6786
:100B6700C0E0C0D075D000C002C003C004C005C03B
:100B770006C007E50B60077FD07E07120C9AD007E7
:0F0B8700D006D005D004D003D002D0D0D0E032B9
:1009610075FFDE75FFAD75B214E4F5E175E216753C
:10097100E340D2AFD2A8D2AAD288D28AD2A9120D8C
:1009810015E4FF120D20E4FDFF120CBA7D017F0179
:10099100120CBAE4FDAFA4120CD67D02AFA4120C66
:1009A100D67D01AFA4120CD67D04AFA4120CD67D66
:1009B10003AFA4120CD67D06AFA4120CD67D05AFF1
:1009C100A4120CD67D07AFA4120CD6E4FDAFA6127B
:1009D1000CD67D01AFA6120CD67D02AFA6120CD6A5
:1009E1007D03AFA6120CD67D04AFA6120CD6AFA51F
:0809F100120D2F120D0380FB13
:100D0300E5176508600BE509B40103020A85120AB9
:020D1300E122DB
:100C3200E5176508601CE517D39508400B74182565
:100C420017F876017509012274122517F87601E466
:030C5200F509227F
:070D2800E50A70028F0922A9
:100A8500120B96751F008F20752100850822D3E56E
:100A9500229520E51F6480F8E5216480985032E5B1
:100AA5002264054521602A750A01AF22120D2085B1
:100AB50022087FFA7E00120C9A74182522F8E6B4F3
:100AC5000105E4F6120C780522E52270C1052180A6
:0B0AD500BDE4F50AE51D6003120AE114
:010AE00022F3
:100AE100120BBE7523008F24752500850826C3E5EA
:100AF100269524E5236480F8E525648098402A75CD
:100B01000A01AF26120D208526087FFA7E00120CFD
:100B11009A74122526F8E6B40105E4F6120C78E57C
:100B210026152670C9152580C5E4F50AE51160036F
:030B3100120A8520
:010B3400229E
:100B9600E51CB401037F0422E51BB401037F032295
:100BA600E51AB401037F0222E519B401037F01228D
:080BB600E518B401027F0022E2
:100BBE00E512B401037F0022E513B401037F012285
:100BCE00E514B401037F0222E515B401037F03226D
:080BDE00E516B401027F0422B8
:100C7800750B01E4FF120CEF7F01120CEF7FE87E89
:100C880003120C9AE4FF120CEF7F01120CEFE4F54B
:020C98000B222D
:100CD6007401A805088002C333D8FCF45FFEE4A8BB
:090CE60005088002C333D8FC228A
:020BE600AC075A
:100BE80074017E00A805088005C333CE33CED8F93A
:100BF800FFECFBE4FEEF5BA805088006CEA2E71336
:050C0800CE13D8F8FF37
:010C0D0022C4
:100CBA00EF14600D047012E5A7547F4480F5A780F5
:0C0CCA0008E5A754BF4440F5A7020C0E3B
:100CEF008F27120C55BF0104E4FD80027D01AF2751
:040CFF00120C0E22A3
:100C0E00EF14601104701CEDC43333335480FFE5D0
:100C1E00B0547F800BEDC4333354C0FFE5B054BFE6
:040C2E004FF5B022AC
:100C5500E4FEEF146010047017E5B05480C413135C
:100C6500135401FE800AE5B05440C413135403FE27
:020C7500AF06C8
:010C7700225A
:070B5F0005283F065B4F660D
:010D2F0022A1
:080D200074282FF8E6F590227B
:030000000209F9F9
:0C09F900787FE4F6D8FD75812C020A40DE
:100A0500020961E493A3F8E493A34003F68001F29D
:100A150008DFF48029E493A3F85407240CC8C333F2
:100A2500C4540F4420C8834004F456800146F6DFC1
:100A3500E4800B0102040810204080900B35E47E11
:100A4500019360BCA3FF543F30E509541FFEE493B6
:100A5500A360010ECF54C025E060A840B8E493A37D
:100A6500FAE493A3F8E493A3C8C582C8CAC583CAA8
:100A7500F0A3C8C582C8CAC583CADFE9DEE780BE60
:010B6600008E
:00000001FF
